{
  "_format": "hh-sol-artifact-1",
  "contractName": "Drive",
  "sourceName": "Contracts/Drive.sol",
  "abi": [
    {
      "anonymous": false,
      "inputs": [
        {
          "indexed": true,
          "internalType": "string",
          "name": "cid",
          "type": "string"
        },
        {
          "indexed": true,
          "internalType": "address",
          "name": "grantee",
          "type": "address"
        }
      ],
      "name": "FileAccessGranted",
      "type": "event"
    },
    {
      "anonymous": false,
      "inputs": [
        {
          "indexed": true,
          "internalType": "string",
          "name": "cid",
          "type": "string"
        },
        {
          "indexed": true,
          "internalType": "address",
          "name": "grantee",
          "type": "address"
        }
      ],
      "name": "FileAccessRevoked",
      "type": "event"
    },
    {
      "anonymous": false,
      "inputs": [
        {
          "indexed": true,
          "internalType": "address",
          "name": "owner",
          "type": "address"
        },
        {
          "indexed": false,
          "internalType": "string",
          "name": "cid",
          "type": "string"
        }
      ],
      "name": "FileUploaded",
      "type": "event"
    },
    {
      "inputs": [
        {
          "internalType": "address",
          "name": "user",
          "type": "address"
        }
      ],
      "name": "getOwnedFiles",
      "outputs": [
        {
          "internalType": "string[]",
          "name": "",
          "type": "string[]"
        }
      ],
      "stateMutability": "view",
      "type": "function"
    },
    {
      "inputs": [
        {
          "internalType": "string",
          "name": "cid",
          "type": "string"
        },
        {
          "internalType": "address",
          "name": "grantee",
          "type": "address"
        }
      ],
      "name": "grantAccess",
      "outputs": [],
      "stateMutability": "nonpayable",
      "type": "function"
    },
    {
      "inputs": [
        {
          "internalType": "string",
          "name": "cid",
          "type": "string"
        },
        {
          "internalType": "address",
          "name": "user",
          "type": "address"
        }
      ],
      "name": "hasAccess",
      "outputs": [
        {
          "internalType": "bool",
          "name": "",
          "type": "bool"
        }
      ],
      "stateMutability": "view",
      "type": "function"
    },
    {
      "inputs": [
        {
          "internalType": "string",
          "name": "cid",
          "type": "string"
        },
        {
          "internalType": "address",
          "name": "grantee",
          "type": "address"
        }
      ],
      "name": "revokeAccess",
      "outputs": [],
      "stateMutability": "nonpayable",
      "type": "function"
    },
    {
      "inputs": [
        {
          "internalType": "string",
          "name": "cid",
          "type": "string"
        }
      ],
      "name": "upload",
      "outputs": [],
      "stateMutability": "nonpayable",
      "type": "function"
    }
  ],
  "bytecode": "0x608060405234801561001057600080fd5b50611137806100206000396000f3fe608060405234801561001057600080fd5b50600436106100575760003560e01c806313bd20e21461005c57806342ce14881461008c5780635f17fcc1146100a8578063dfe0b5fe146100d8578063f37c215e146100f4575b600080fd5b610076600480360381019061007191906109ab565b610110565b6040516100839190610a22565b60405180910390f35b6100a660048036038101906100a19190610a3d565b610185565b005b6100c260048036038101906100bd9190610a86565b6103d6565b6040516100cf9190610bf4565b60405180910390f35b6100f260048036038101906100ed91906109ab565b6104ee565b005b61010e600480360381019061010991906109ab565b610670565b005b600080836040516101219190610c52565b908152602001604051809103902060020160008373ffffffffffffffffffffffffffffffffffffffff1673ffffffffffffffffffffffffffffffffffffffff16815260200190815260200160002060009054906101000a900460ff16905092915050565b600080826040516101969190610c52565b908152602001604051809103902060000180546101b290610c98565b9050146101f4576040517f08c379a00000000000000000000000000000000000000000000000000000000081526004016101eb90610d26565b60405180910390fd5b600080826040516102059190610c52565b90815260200160405180910390209050818160000190816102269190610efc565b50338160010160006101000a81548173ffffffffffffffffffffffffffffffffffffffff021916908373ffffffffffffffffffffffffffffffffffffffff1602179055506001808360405161027b9190610c52565b908152602001604051809103902060003373ffffffffffffffffffffffffffffffffffffffff1673ffffffffffffffffffffffffffffffffffffffff16815260200190815260200160002060006101000a81548160ff021916908315150217905550600260003373ffffffffffffffffffffffffffffffffffffffff1673ffffffffffffffffffffffffffffffffffffffff1681526020019081526020016000208290806001815401808255809150506001900390600052602060002001600090919091909150908161034e9190610efc565b506003829080600181540180825580915050600190039060005260206000200160009091909190915090816103839190610efc565b503373ffffffffffffffffffffffffffffffffffffffff167f5378764a7f2ef654d29aa1cad65388f3dade11c871fbcd558bf6b56be0e37de8836040516103ca9190611007565b60405180910390a25050565b6060600260008373ffffffffffffffffffffffffffffffffffffffff1673ffffffffffffffffffffffffffffffffffffffff168152602001908152602001600020805480602002602001604051908101604052809291908181526020016000905b828210156104e357838290600052602060002001805461045690610c98565b80601f016020809104026020016040519081016040528092919081815260200182805461048290610c98565b80156104cf5780601f106104a4576101008083540402835291602001916104cf565b820191906000526020600020905b8154815290600101906020018083116104b257829003601f168201915b505050505081526020019060010190610437565b505050509050919050565b6000826040516104fe9190610c52565b908152602001604051809103902060010160009054906101000a900473ffffffffffffffffffffffffffffffffffffffff1673ffffffffffffffffffffffffffffffffffffffff163373ffffffffffffffffffffffffffffffffffffffff161461059d576040517f08c379a000000000000000000000000000000000000000000000000000000000815260040161059490611075565b60405180910390fd5b600080836040516105ae9190610c52565b908152602001604051809103902060020160008373ffffffffffffffffffffffffffffffffffffffff1673ffffffffffffffffffffffffffffffffffffffff16815260200190815260200160002060006101000a81548160ff0219169083151502179055508073ffffffffffffffffffffffffffffffffffffffff16826040516106389190610c52565b60405180910390207f62a2e63962e803a5b6bc86c133832f274bb415b6824a32d015a9ab27f637413f60405160405180910390a35050565b6000826040516106809190610c52565b908152602001604051809103902060010160009054906101000a900473ffffffffffffffffffffffffffffffffffffffff1673ffffffffffffffffffffffffffffffffffffffff163373ffffffffffffffffffffffffffffffffffffffff161461071f576040517f08c379a0000000000000000000000000000000000000000000000000000000008152600401610716906110e1565b60405180910390fd5b60016000836040516107319190610c52565b908152602001604051809103902060020160008373ffffffffffffffffffffffffffffffffffffffff1673ffffffffffffffffffffffffffffffffffffffff16815260200190815260200160002060006101000a81548160ff0219169083151502179055508073ffffffffffffffffffffffffffffffffffffffff16826040516107bb9190610c52565b60405180910390207f80d884cde1047054a9f77a25270ffcdcfc295714017d43929e780cf36f7cd5a360405160405180910390a35050565b6000604051905090565b600080fd5b600080fd5b600080fd5b600080fd5b6000601f19601f8301169050919050565b7f4e487b7100000000000000000000000000000000000000000000000000000000600052604160045260246000fd5b61085a82610811565b810181811067ffffffffffffffff8211171561087957610878610822565b5b80604052505050565b600061088c6107f3565b90506108988282610851565b919050565b600067ffffffffffffffff8211156108b8576108b7610822565b5b6108c182610811565b9050602081019050919050565b82818337600083830152505050565b60006108f06108eb8461089d565b610882565b90508281526020810184848401111561090c5761090b61080c565b5b6109178482856108ce565b509392505050565b600082601f83011261093457610933610807565b5b81356109448482602086016108dd565b91505092915050565b600073ffffffffffffffffffffffffffffffffffffffff82169050919050565b60006109788261094d565b9050919050565b6109888161096d565b811461099357600080fd5b50565b6000813590506109a58161097f565b92915050565b600080604083850312156109c2576109c16107fd565b5b600083013567ffffffffffffffff8111156109e0576109df610802565b5b6109ec8582860161091f565b92505060206109fd85828601610996565b9150509250929050565b60008115159050919050565b610a1c81610a07565b82525050565b6000602082019050610a376000830184610a13565b92915050565b600060208284031215610a5357610a526107fd565b5b600082013567ffffffffffffffff811115610a7157610a70610802565b5b610a7d8482850161091f565b91505092915050565b600060208284031215610a9c57610a9b6107fd565b5b6000610aaa84828501610996565b91505092915050565b600081519050919050565b600082825260208201905092915050565b6000819050602082019050919050565b600081519050919050565b600082825260208201905092915050565b60005b83811015610b19578082015181840152602081019050610afe565b60008484015250505050565b6000610b3082610adf565b610b3a8185610aea565b9350610b4a818560208601610afb565b610b5381610811565b840191505092915050565b6000610b6a8383610b25565b905092915050565b6000602082019050919050565b6000610b8a82610ab3565b610b948185610abe565b935083602082028501610ba685610acf565b8060005b85811015610be25784840389528151610bc38582610b5e565b9450610bce83610b72565b925060208a01995050600181019050610baa565b50829750879550505050505092915050565b60006020820190508181036000830152610c0e8184610b7f565b905092915050565b600081905092915050565b6000610c2c82610adf565b610c368185610c16565b9350610c46818560208601610afb565b80840191505092915050565b6000610c5e8284610c21565b915081905092915050565b7f4e487b7100000000000000000000000000000000000000000000000000000000600052602260045260246000fd5b60006002820490506001821680610cb057607f821691505b602082108103610cc357610cc2610c69565b5b50919050565b600082825260208201905092915050565b7f43494420616c7265616479207265676973746572656400000000000000000000600082015250565b6000610d10601683610cc9565b9150610d1b82610cda565b602082019050919050565b60006020820190508181036000830152610d3f81610d03565b9050919050565b60008190508160005260206000209050919050565b60006020601f8301049050919050565b600082821b905092915050565b600060088302610da87fffffffffffffffffffffffffffffffffffffffffffffffffffffffffffffffff82610d6b565b610db28683610d6b565b95508019841693508086168417925050509392505050565b6000819050919050565b6000819050919050565b6000610df9610df4610def84610dca565b610dd4565b610dca565b9050919050565b6000819050919050565b610e1383610dde565b610e27610e1f82610e00565b848454610d78565b825550505050565b600090565b610e3c610e2f565b610e47818484610e0a565b505050565b5b81811015610e6b57610e60600082610e34565b600181019050610e4d565b5050565b601f821115610eb057610e8181610d46565b610e8a84610d5b565b81016020851015610e99578190505b610ead610ea585610d5b565b830182610e4c565b50505b505050565b600082821c905092915050565b6000610ed360001984600802610eb5565b1980831691505092915050565b6000610eec8383610ec2565b9150826002028217905092915050565b610f0582610adf565b67ffffffffffffffff811115610f1e57610f1d610822565b5b610f288254610c98565b610f33828285610e6f565b600060209050601f831160018114610f665760008415610f54578287015190505b610f5e8582610ee0565b865550610fc6565b601f198416610f7486610d46565b60005b82811015610f9c57848901518255600182019150602085019450602081019050610f77565b86831015610fb95784890151610fb5601f891682610ec2565b8355505b6001600288020188555050505b505050505050565b6000610fd982610adf565b610fe38185610cc9565b9350610ff3818560208601610afb565b610ffc81610811565b840191505092915050565b600060208201905081810360008301526110218184610fce565b905092915050565b7f4f6e6c7920746865206f776e65722063616e207265766f6b6520616363657373600082015250565b600061105f602083610cc9565b915061106a82611029565b602082019050919050565b6000602082019050818103600083015261108e81611052565b9050919050565b7f4f6e6c7920746865206f776e65722063616e206772616e742061636365737300600082015250565b60006110cb601f83610cc9565b91506110d682611095565b602082019050919050565b600060208201905081810360008301526110fa816110be565b905091905056fea2646970667358221220dd142a611752fca0d37eaf7bc5bdc38411a0fc0817e1da82a817e0f6c85fc79c64736f6c63430008130033",
  "linkReferences": {},
  "deployedLinkReferences": {}
}